:020000040800F2
:10800000180400209D810008BB8D0008C18B00086A
:10801000B98D0008A9820008698E000800000000E0
:10802000000000000000000000000000BF8D0008FC
:10803000AB82000800000000BD8D0008C18D000863
:10804000B7810008B7810008B7810008B781000830
:10805000B7810008B7810008C9820008B78100080D
:10806000B7810008B7810008B7810008B781000810
:10807000B7810008B7810008B7810008B781000800
:10808000B7810008B7810008B7810008B7810008F0
:10809000B7810008B7810008B7810008B7810008E0
:1080A000B7810008B7810008B7810008B7810008D0
:1080B000B7810008B7810008B7810008B7810008C0
:1080C000B7810008B7810008B7810008B7810008B0
:1080D000B7810008B7810008B7810008B7810008A0
:1080E000B7810008B7810008B7810008B781000890
:1080F000B7810008B7810008B7810008B781000880
:10810000B7810008B7810008B7810008B78100086F
:10811000B7810008B7810008B7810008B78100085F
:10812000B7810008B7810008B7810008B78100084F
:10813000B7810008B7810008B7810008B78100083F
:10814000B7810008B7810008B7810008B78100082F
:10815000B7810008B7810008B7810008B78100081F
:10816000B7810008B7810008B7810008B78100080F
:10817000B7810008B7810008B7810008000000003F
:10818000B7810008B7810008DFF80CD000F07AF85A
:1081900000480047058F0008180400200648804763
:1081A00006480047FEE7FEE7FEE7FEE7FEE7FEE7DC
:1081B000FEE7FEE7FEE7FEE7598E0008898100082A
:1081C0002DE9F05F0546002092469B46884606460C
:1081D000814640241BE0284641464746224600F09F
:1081E00041F853465A46C01A914110D311461846D9
:1081F000224600F028F82D1A67EB01084F46224668
:108200000120002100F01FF817EB00094E41201E4D
:10821000A4F10104DFDC484631462A464346BDE866
:10822000F09FD2B201E000F8012B491EFBD270474B
:108230000022F6E710B513460A4604461946FFF732
:10824000F0FF204610BD202A04DB203A00FA02F19C
:10825000002070479140C2F1200320FA03F3194334
:1082600090407047202A04DB203A21FA02F00021D6
:10827000704721FA02F3D040C2F120029140084336
:1082800019467047064C074D06E0E06840F00103D0
:1082900094E8070098471034AC42F6D3FFF778FF14
:1082A000248F0008448F0008FEE770470022054B2A
:1082B00005E0002100BF491C9942FBDB521C8242B1
:1082C000F7DB704740900200012000F02FB800005B
:1082D00010B5012812D11420FFF7E8FF012108484A
:1082E00000F026F9012809D14FF47041054800F04B
:1082F00024F9BDE8104004A000F0B8BD10BD000096
:1083000000000240000C024043616C6C206261631B
:108310006B20496E746572727570742066756E6339
:1083200074696F6E2063616C6C656400044910B5FC
:108330000A68024202D00860FFF7CAFF10BD0000C1
:10834000143C01402DE9F84FDFF8B8A100220125C7
:108350000AF1040B03264FF00F090BF1040E00BFC6
:108360000B6805FA02F42340A3426FD10F7907F09E
:108370000307012F01D0022F16D187684FEA420868
:1083800006FA08FC27EA0C07D1F80CC00CFA08FC26
:108390004CEA070CC0F808C04768A7430C79C4F33F
:1083A000001494403C4344600C79E443A4070AD091
:1083B000C4684FEA420C06FA0CF7BC438F6807FA10
:1083C0000CF72743C7600C7904F00304022C12D188
:1083D000D40800EB840CDCF820405707FF0E09FAA4
:1083E00007F824EA0804D1F8108008FA07F848EAE8
:1083F0000408CCF8208004684FEA420C06FA0CF717
:10840000BC430F7907F0030707FA0CF7274307600F
:108410004C68E40070D53C4C276847F480472760DF
:10842000246822F0030704F480440094374C07EBDF
:10843000040CDCF8084897074FEA177809FA08F7A0
:10844000BC43334FB84202D1002724E054E0314FFF
:10845000B84201D101271EE02F4FB84201D10227B7
:1084600019E02E4FB84201D1032714E02C4FB84237
:1084700001D104270FE02B4FB84201D105270AE0B4
:10848000294FB84201D1062705E0284FB84201D153
:10849000072700E0082707FA08F72743CCF80878F1
:1084A000DAF800405746D1F804C09C435FEACC3C60
:1084B00000D51C433C60DBF800405F46D1F804C0A7
:1084C0009C435FEA8C3C00D51C433C60DEF80040D6
:1084D0007746D1F804C09C435FEACC2C00D51C43FE
:1084E0003C60084F0C373C68D1F804C09C435FEAFD
:1084F0008C2C00D51C433C60521C102AFFF430AF7A
:10850000BDE8F88F003C0140443802400030014093
:10851000000002400004024000080240000C02403B
:10852000001002400014024000180240001C0240EB
:108530000069084000D001207047426921EA020327
:108540000A4043EA0241816170470AB18161704784
:108550000904FBE701488068704700000000002024
:108560000248816802781144816070470000002051
:108570000B4810B5016841F400710160016841F4D5
:1085800080610160016841F480710160032000F0A6
:1085900071F8002000F006F800F024F8002010BD6B
:1085A000003C024070B50D4D04464FF47A712878B6
:1085B000B1FBF0F00A490968B1FBF0F000F0ECFA09
:1085C00048B9102C07D200222146501E00F032F884
:1085D00000206C6070BD012070BD00000000002014
:1085E0000C0000200B4882B0016841F4804101601A
:1085F000006800F4804000900648001F016841F0C8
:1086000080510160006800F080500090072002B0A7
:1086100000F030B844380240002809DB00F01F02A7
:10862000012191404009800000F1E020C0F80011D4
:1086300070470000F0B40E4B1B680C46C3F30223D6
:10864000C3F10705042D00D90425191D072901D2FE
:10865000002300E0DB1E012606FA05F1491E214039
:1086600099409E40761E16403143F0BC00F006BC97
:108670000CED00E0064900F0070208684FF6FF0322
:10868000184040EA0220034A104308607047000087
:108690000CED00E00000FA052DE9F0470E4605005C
:1086A00065D0DFF81481D8F80000F7B200F00700B9
:1086B000B04207D288F80070D8F8000000F0070038
:1086C000B04254D128683D4C810712D5400703D5EC
:1086D000206840F4E05020602878000703D5206827
:1086E00040F4604020602068A96820F0F000084352
:1086F00020602878C0072DD03049686808390128E3
:1087000012D0022813D0032811D009688907002944
:108710002DDA216821F0030101432160FFF71AFFE0
:10872000814641F2883A0EE009688903EFE709685B
:108730008901ECE7FFF70EFFA0EB0901514502D9D3
:108740000320BDE8F0872068696800F00C00B0EBFA
:10875000810FEFD1D8F80010404601F00701B14277
:1087600007D90770006800F00700B04201D001206F
:10877000E7E72878400705D52068E96820F4E0504D
:10878000084320602878000706D52068296920F46E
:10879000604040EAC100206000F018F82168084AF3
:1087A000C1F30311515CC8400649086006480068DF
:1087B000FFF7F8FE0020C4E7003C02400838024002
:1087C000128F00080C00002004000020154810B58E
:1087D000006810F00C02144813D04110042A0FD086
:1087E000082A0ED10F4C241F2268236802F03F0292
:1087F0005B0207D52068C0F38810A0FB010106E0EA
:10880000084610BD2168C1F38811A1FB00010023B7
:10881000FFF7D6FC2168C1F30141491C4900B0FBB8
:10882000F1F010BD083802400024F4002DE9F84FA3
:1088300004006ED02078DFF84C93C007A9F104053E
:108840004AD009F104000168C1F38101012908D06F
:108850000068C0F3810002280AD1D9F80000400264
:1088600006D52868800337D560680028E1D033E05A
:108870006068B0F5803F10D0B0F5A02F286810D008
:1088800020F480302860286820F480202860606808
:10889000A8B1FFF75FFE06460DE0286840F480307F
:1088A000F4E740F480202860F7E700BFFFF752FEAE
:1088B000801B642873D828688003F7D50CE0FFF785
:1088C00049FE064605E000BFFFF744FE801B642812
:1088D000F0D828688003F7D42078DFF8AC828007CE
:1088E0004FF0000A3ED5A748001D016811F00C0F9B
:1088F00008D00068C0F3810002280BD1D9F800002D
:10890000400207D42868800716D5E068012800D106
:1089100012E033E1E068B8B10120C8F80000FFF7C9
:1089200019FE064605E000BFFFF714FE801B022873
:10893000C0D828688007F7D52868216920F0F8009A
:1089400040EAC10028600DE0C8F800A0FFF702FE71
:10895000064604E0FFF7FEFD801B02281FD82868AA
:108960008007F7D42078000722D5864F87486169B1
:10897000703771B101210160FFF7ECFD064604E09C
:10898000FFF7E8FD801B022809D838688007F7D573
:108990000EE0C0F800A0FFF7DDFD064605E082E02E
:1089A000FFF7D8FD801B02287DD838688007F7D4F0
:1089B0002078400768D5DFF8CCB100270BF13C0BDD
:1089C000DBF80000C0000BD4DBF8001041F0805150
:1089D000CBF80010DBF80000012700F08050009079
:1089E0006B4E3068C00510D4306840F48070306041
:1089F000FFF7B0FD009005E0FFF7ACFD0099401ACD
:108A0000022850D83068C005F6D55E4EA0686C3696
:108A100001280FD00528306810D020F00100306008
:108A2000306820F004003060A068B8B1FFF792FD14
:108A300000900FE0306840F00100F4E740F00400DF
:108A40003060F7E7FFF786FD0099411A41F2883060
:108A5000814266D830688007F4D50EE0FFF77AFDD2
:108A6000009007E0FFF776FD0099411A41F2883047
:108A7000814256D830688007F4D42FB1DBF800105B
:108A800021F08051CBF80010A069C8B33D49091D01
:108A90000968C1F3810102294AD00228504607D053
:108AA000C8F8600000E03CE0FFF754FD04463BE0FE
:108AB0004746C8F86000FFF74DFD064605E000BFD9
:108AC000FFF748FD801B02282BD828688001F7D4C7
:108AD000D4E907010843A16A2E4A490802EB014183
:108AE000626A41EA8211084394F82C1040EA01615D
:108AF000C9F8001001203866FFF72CFD044606E097
:108B00003EE000BFFFF726FD001B022809D82868B9
:108B10008001F7D534E000BFFFF71CFD001B0228E1
:108B200002D90320BDE8F88F28688001F4D427E03B
:108B30000128F7D0D9F80000E26900F480019142E1
:108B40001CD1226A00F03F01914217D147F6C07153
:108B5000626A0140B1EB821F10D1A26A4FF0FF336D
:108B600000F4403103EB5202B1EB024F06D194F80E
:108B70002C1000F07060B0EB016F01D00120D1E744
:108B80000020CFE70438024000004742800E4742F1
:108B9000007000400000FFFF10B5401EB0F1807F64
:108BA00001D3012010BD4FF0E02460610F21601758
:108BB00000F064F90020A06107202061002010BDB2
:108BC000FEE700002DE9F04F87B014216846FFF75B
:108BD0002FFB71480024016841F010010160016819
:108BE00001F010010591016841F004010160016884
:108BF00001F004010591016841F080010160016804
:108C000001F080010591016841F0010101600168F6
:108C100001F001010591016841F002010160016864
:108C200001F002010591016841F00801016000684E
:108C3000002200F00800059008215848FFF785FC45
:108C4000012211465648FFF780FC4FF2100A00221D
:108C500051465448FFF779FC082501260095CDE9D7
:108C6000016469464D480394FFF76CFB0096CDE91B
:108C7000016469464A480394FFF764FB00950225A6
:108C8000CDE901540527CDE9034769464448FFF77C
:108C900059FB45480096CDE90104DFF810B169465B
:108CA0005846FFF74FFB10200090CDE901544FF0DC
:108CB0000608CDE9034869465846FFF743FBE02024
:108CC0000090CDE90154CDE9034769465846FFF7C6
:108CD00039FB4FF00409CDE9009469463448029409
:108CE000FFF730FB68020090CDE90154CDE903475E
:108CF00069462F48FFF726FBCDF800A0CDE90164B7
:108D0000694628480394FFF71DFB4FF4A4500090D8
:108D1000CDE90154CDE9034869462148FFF712FB2C
:108D20002802CDE90004694658460294FFF70AFB81
:108D30004FF4E0500090CDE901540A20CDE9034002
:108D400069465846FFF7FEFA2020CDE9000469463F
:108D500014480294FFF7F6FA4FF4107000901220B6
:108D6000CDE90106CDE9034969461148FFF7EAFA62
:108D700010480095CDE9010469460848FFF7E2FA7A
:108D8000002211460620FFF755FC0620FFF744FCA1
:108D900007B0BDE8F08F00003038024000100240FC
:108DA00000080240000C02400000111000000240C8
:108DB0000004024000001210FEE7FEE77047704713
:108DC000FFF7CEBB30B593B030216846FFF730FADD
:108DD00014210CA8FFF72CFA1D480025016841F06A
:108DE00080510160006800F08050119019480168BE
:108DF00041F4804101600068022400F48040119039
:108E000001200090000401908001CDE9064004207B
:108E10000890A820CDE9090407200B906846FFF7C9
:108E200005FD08B172B6FEE70CA90F2081E83100FC
:108E30004FF4A0500F904FF48050109005210CA8D3
:108E4000FFF72AFC002801D072B6FEE713B030BD50
:108E500040380240007000400248016841F470014F
:108E60000160704788ED00E0FEE70000014A02491A
:108E700000F023B8DD8E0008100000200907090E5D
:108E8000002804DB00F1E02080F80014704700F0B7
:108E90000F0000F1E02080F8141D704702E008C8C0
:108EA000121F08C1002AFAD170477047002001E064
:108EB00001C1121F002AFBD170472DE9F04116466F
:108EC0000F460446002503E03946B047641C6D1C7C
:108ED00020780028F8D12846BDE8F08108490968C3
:108EE000C90706D0064980390968CA074FF06041B2
:108EF00001D1704700BF0A68002AFBD00870704794
:108F0000800E00E0FFF734FBFFF75CFFFFF75AFE2F
:108F1000FEE7000000000000000001020304060755
:108F200008090000448F0008000000201400000021
:108F30009C8E0008588F00081400002004040000D4
:108F4000AC8E0008010000001000000000000000CE
:088F50000024F4000000000001
:0400000508008189E5
:00000001FF
