:020000040800F2
:10000000580500209D0100087F1300089711000883
:100010007D130008A90200089D15000800000000DB
:100020000000000000000000000000008313000832
:10003000AB020008000000008113000885130008CF
:10004000B7010008B7010008B7010008B7010008B0
:10005000B7010008B7010008B7010008B7010008A0
:10006000B7010008B7010008B7010008B701000890
:10007000B7010008B7010008B7010008B701000880
:10008000B7010008B7010008B7010008B701000870
:10009000B7010008B7010008B7010008B701000860
:1000A000B7010008B7010008B7010008B701000850
:1000B000B7010008B7010008B7010008B701000840
:1000C000B7010008B7010008B7010008B701000830
:1000D000B7010008B7010008B7010008B701000820
:1000E000B7010008B7010008B7010008B701000810
:1000F000B7010008B7010008B7010008B701000800
:10010000B7010008B7010008B7010008B7010008EF
:10011000B7010008B7010008B7010008B7010008DF
:10012000B7010008B7010008B7010008B7010008CF
:10013000B7010008B7010008B7010008B7010008BF
:10014000B7010008B7010008B7010008B7010008AF
:10015000B7010008B7010008B7010008B70100089F
:10016000B7010008B7010008B7010008B70100088F
:10017000B7010008B7010008B7010008000000003F
:10018000B7010008B7010008DFF80CD000F07AF8DA
:100190000048004779250008580500200648804798
:1001A00006480047FEE7FEE7FEE7FEE7FEE7FEE75C
:1001B000FEE7FEE7FEE7FEE71D14000889010008E0
:1001C0002DE9F05F0546002092469B46884606468C
:1001D000814640241BE0284641464746224600F01F
:1001E00041F853465A46C01A914110D31146184659
:1001F000224600F028F82D1A67EB01084F462246E8
:100200000120002100F01FF817EB00094E41201ECD
:10021000A4F10104DFDC484631462A464346BDE8E6
:10022000F09FD2B201E000F8012B491EFBD27047CB
:100230000022F6E710B513460A4604461946FFF7B2
:10024000F0FF204610BD202A04DB203A00FA02F11C
:10025000002070479140C2F1200320FA03F31943B4
:1002600090407047202A04DB203A21FA02F0002156
:10027000704721FA02F3D040C2F1200291400843B6
:1002800019467047064C074D06E0E06840F0010350
:1002900094E8070098471034AC42F6D3FFF778FF94
:1002A000BC260008DC260008FEE77047002229B1C2
:1002B00001291AD002291BD04FF440720E490B6855
:1002C00023F440730B600B6813430B600A6822F041
:1002D000F8020A600A68022303EBC00002430A60C6
:1002E000086840F48030086070474FF48072E5E79A
:1002F0004FF40072E2E70000103C0240134801682E
:1003000089050FD5016821F400710160016841F48D
:1003100000610160016821F400610160016841F43D
:1003200000710160016849050FD5016821F4806101
:100330000160016841F480510160016821F480513D
:100340000160016841F4806101607047003C024037
:1003500008490A6822F440720A600A6842F00402FE
:100360000A600A684FF4803343EA002002430A60BF
:1003700070470000103C0240064A136823F44073A3
:10038000136013681360136843F001031360017076
:1003900070470000103C0240094910B50C6824F475
:1003A00040740C600C6844F440740C600C6844F0B9
:1003B00001040C600260BFF36F8F436010BD00004A
:1003C000103C0240074A136823F44073136013681B
:1003D00043F480731360136843F0010313600180DA
:1003E00070470000103C0240074A136823F4407332
:1003F0001360136843F400731360136843F0010340
:100400001360016070470000103C02401749086803
:10041000C206174805D5C26942F01002C261102217
:100420000A600A68920605D5C26942F00802C261F4
:1004300020220A600A68520605D5C26942F0040209
:10044000C26140220A600A68120605D5C26942F0FC
:100450000202C26180220A600A68920705D5C26959
:1004600042F02002C2610220086070470C3C02404A
:100470003401002070B5114904460020C86100F025
:1004800021FA06460E4D09E0601C07D024B100F0A9
:1004900019FA801BA04201D9032070BD2868C0034F
:1004A000F2D42868C00701D001202860286810F025
:1004B000F200F2D0FFF7AAFF012070BD3401002046
:1004C0000C3C024030B502234371002305E000BF1D
:1004D000056851F823402C605B1C9342F8D30168F7
:1004E000096801224271084630BD10B5040002D0EF
:1004F000607910B106E0012010BD00202071204677
:1005000000F004F801206071002010BD08B50068FB
:100510000649884208D10648016841F480510160CB
:10052000006800F48050009008BD000000300240D8
:10053000303802402DE9F047044622480F46017E3C
:1005400001290AD00121804601764CF250394846F3
:10055000FFF790FF020003D02FE00220BDE8F087F4
:100560004FF0FF3038602068174D012801D0A66891
:100570001CE0207C6168FFF7EBFE4846FFF77AFF3E
:100580000246286820F00400286014E0217C3046F0
:10059000FFF78CFE4846FFF76DFF0200286820F049
:1005A000FA00286001D03E6005E0761CD4E9021014
:1005B0000844B042EAD8FFF7A1FE002188F81810DD
:1005C0001046CBE734010020103C0240034801688C
:1005D00041F000410160002070470000103C0240E3
:1005E0000348016841F001010160002070470000EC
:1005F000143C024006480068C00707D0044805497B
:100600000C380160044901600020704701207047E8
:10061000143C02403B2A19087F6E5D4C2DE9F047DF
:100620001B4E05461446307E1F468946012808D0D9
:10063000012030764CF250384046FFF71BFF18B1CE
:1006400014E00220BDE8F0879DB1012D16D0022DE7
:1006500019D022463B464846FFF79EFE4046FFF72C
:1006600009FF0C490A6822F001020A600021317674
:10067000E8E7E1B24846FFF77FFEEFE7A1B2484660
:10068000FFF7A0FEEAE721464846FFF7ADFEE5E7A3
:1006900034010020103C0240074900200A68002A6B
:1006A00009DA054A054B0C3A1360054B13600968DB
:1006B000002900DA01207047103C02402301674501
:1006C000AB89EFCD2DE9F84FDFF8B8A10022012565
:1006D0000AF1040B03264FF00F090BF1040E00BFC3
:1006E0000B6805FA02F42340A3426FD10F7907F09B
:1006F0000307012F01D0022F16D187684FEA420865
:1007000006FA08FC27EA0C07D1F80CC00CFA08FC22
:100710004CEA070CC0F808C04768A7430C79C4F33B
:10072000001494403C4344600C79E443A4070AD08D
:10073000C4684FEA420C06FA0CF7BC438F6807FA0C
:100740000CF72743C7600C7904F00304022C12D184
:10075000D40800EB840CDCF820405707FF0E09FAA0
:1007600007F824EA0804D1F8108008FA07F848EAE4
:100770000408CCF8208004684FEA420C06FA0CF713
:10078000BC430F7907F0030707FA0CF7274307600C
:100790004C68E40070D53C4C276847F480472760DC
:1007A000246822F0030704F480440094374C07EBDC
:1007B000040CDCF8084897074FEA177809FA08F79D
:1007C000BC43334FB84202D1002724E054E0314FFC
:1007D000B84201D101271EE02F4FB84201D10227B4
:1007E00019E02E4FB84201D1032714E02C4FB84234
:1007F00001D104270FE02B4FB84201D105270AE0B1
:10080000294FB84201D1062705E0284FB84201D14F
:10081000072700E0082707FA08F72743CCF80878ED
:10082000DAF800405746D1F804C09C435FEACC3C5C
:1008300000D51C433C60DBF800405F46D1F804C0A3
:100840009C435FEA8C3C00D51C433C60DEF80040D2
:100850007746D1F804C09C435FEACC2C00D51C43FA
:100860003C60084F0C373C68D1F804C09C435FEAF9
:100870008C2C00D51C433C60521C102AFFF430AF76
:10088000BDE8F88F003C0140443802400030014090
:10089000000002400004024000080240000C024038
:1008A000001002400014024000180240001C0240E8
:1008B0000069084000D0012070470AB1816170478B
:1008C0000904FBE70148806870470000140000201D
:1008D000024881680278114481607047140000204A
:1008E0000B4810B5016841F400710160016841F4E2
:1008F00080610160016841F480710160032000F0B3
:1009000063F8002000F006F800F024F8002010BD85
:10091000003C024070B50D4D04464FF47A712878C2
:10092000B1FBF0F00A490968B1FBF0F000F0FEFA03
:1009300048B9102C07D200222146501E00F024F89E
:1009400000206C6070BD012070BD0000140000200C
:10095000200000200B4882B0016841F48041016012
:10096000006800F4804000900648001F016841F0D4
:1009700080510160006800F080500090072002B0B4
:1009800000F022B844380240F0B40E4B1B680C460D
:10099000C3F30223C3F10705042D00D90425191D53
:1009A000072901D2002300E0DB1E012606FA05F12B
:1009B000491E214099409E40761E16403143F0BCAE
:1009C00000F0FEBD0CED00E0064900F007020868EB
:1009D0004FF6FF03184040EA0220034A1043086024
:1009E000704700000CED00E00000FA052DE9F0472B
:1009F0000E46050065D0DFF81481D8F80000F7B284
:100A000000F00700B04207D288F80070D8F8000064
:100A100000F00700B04254D128683D4C810712D540
:100A2000400703D5206840F4E05020602878000794
:100A300003D5206840F4604020602068A96820F059
:100A4000F000084320602878C0072DD0304968683E
:100A50000839012812D0022813D0032811D00968C0
:100A6000890700292DDA216821F003010143216063
:100A7000FFF728FF814641F2883A0EE009688903B2
:100A8000EFE709688901ECE7FFF71CFFA0EB09011C
:100A9000514502D90320BDE8F0872068696800F05D
:100AA0000C00B0EB810FEFD1D8F80010404601F0F8
:100AB0000701B14207D90770006800F00700B04293
:100AC00001D00120E7E72878400705D52068E968CC
:100AD00020F4E050084320602878000706D52068FD
:100AE000296920F4604040EAC100206000F038F835
:100AF0002168084AC1F30311515CC84006490860E7
:100B000006480068FFF706FF0020C4E7003C0240EB
:100B100008380240A4260008200000201800002009
:100B20000448054900680968044AC1F38221515C00
:100B3000C84070472000002008380240B426000852
:100B40000448054900680968044AC1F34231515C10
:100B5000C84070472000002008380240B426000832
:100B6000154810B5006810F00C02144813D041105D
:100B7000042A0FD0082A0ED10F4C241F22682368A4
:100B800002F03F025B0207D52068C0F38810A0FB8B
:100B9000010106E0084610BD2168C1F38811A1FBE0
:100BA00000010023FFF70CFB2168C1F30141491C40
:100BB0004900B0FBF1F010BD083802400024F400F9
:100BC0002DE9F84F04006ED02078DFF84C93C00771
:100BD000A9F104054AD009F104000168C1F38101BB
:100BE000012908D00068C0F3810002280AD1D9F891
:100BF0000000400206D52868800337D560680028C9
:100C0000E1D033E06068B0F5803F10D0B0F5A02FA0
:100C1000286810D020F480302860286820F48020D4
:100C200028606068A8B1FFF74DFE06460DE0286811
:100C300040F48030F4E740F480202860F7E700BFFC
:100C4000FFF740FE801B642873D828688003F7D51F
:100C50000CE0FFF737FE064605E000BFFFF732FE67
:100C6000801B6428F0D828688003F7D42078DFF848
:100C7000AC8280074FF0000A3ED5A748001D0168EE
:100C800011F00C0F08D00068C0F3810002280BD1CE
:100C9000D9F80000400207D42868800716D5E0681C
:100CA000012800D112E033E1E068B8B10120C8F8B2
:100CB0000000FFF707FE064605E000BFFFF702FE53
:100CC000801B0228C0D828688007F7D528682169CA
:100CD00020F0F80040EAC10028600DE0C8F800A04C
:100CE000FFF7F0FD064604E0FFF7ECFD801B02284D
:100CF0001FD828688007F7D42078000722D5864FB0
:100D000087486169703771B101210160FFF7DAFD31
:100D1000064604E0FFF7D6FD801B022809D8386894
:100D20008007F7D50EE0C0F800A0FFF7CBFD064620
:100D300005E082E0FFF7C6FD801B02287DD83868F9
:100D40008007F7D42078400768D5DFF8CCB10027BA
:100D50000BF13C0BDBF80000C0000BD4DBF80010FB
:100D600041F08051CBF80010DBF80000012700F0C3
:100D7000805000906B4E3068C00510D4306840F44D
:100D800080703060FFF79EFD009005E0FFF79AFD50
:100D90000099401A022850D83068C005F6D55E4E3A
:100DA000A0686C3601280FD00528306810D020F0DC
:100DB00001003060306820F004003060A068B8B1F5
:100DC000FFF780FD00900FE0306840F00100F4E78D
:100DD00040F004003060F7E7FFF774FD0099411A16
:100DE00041F28830814266D830688007F4D50EE041
:100DF000FFF768FD009007E0FFF764FD0099411AD6
:100E000041F28830814256D830688007F4D42FB13F
:100E1000DBF8001021F08051CBF80010A069C8B3B6
:100E20003D49091D0968C1F3810102294AD0022800
:100E3000504607D0C8F8600000E03CE0FFF742FDF4
:100E400004463BE04746C8F86000FFF73BFD064616
:100E500005E000BFFFF736FD801B02282BD828686D
:100E60008001F7D4D4E907010843A16A2E4A490852
:100E700002EB0141626A41EA8211084394F82C10A6
:100E800040EA0161C9F8001001203866FFF71AFD39
:100E9000044606E03EE000BFFFF714FD001B0228F9
:100EA00009D828688001F7D534E000BFFFF70AFDB4
:100EB000001B022802D90320BDE8F88F28688001B2
:100EC000F4D427E00128F7D0D9F80000E26900F453
:100ED000800191421CD1226A00F03F01914217D15A
:100EE00047F6C071626A0140B1EB821F10D1A26A5D
:100EF0004FF0FF3300F4403103EB5202B1EB024FED
:100F000006D194F82C1000F07060B0EB016F01D0A6
:100F10000120D1E70020CFE704380240000047421B
:100F2000800E4742007000400000FFFF10B5401ED9
:100F3000B0F1807F01D3012010BD4FF0E02460614B
:100F40000F21601700F03CFB0020A061072020610A
:100F5000002010BD70B5040004D094F83D000025B9
:100F600010B106E0012070BD84F83C50204600F02E
:100F700023F8242084F83D002068C16821F4005142
:100F8000C160204600F052FA2068016921F49041C6
:100F900001612068416921F02A0141612068C1682E
:100FA00041F40051C1602564202084F83D0084F89C
:100FB0003E00002070BD000010B586B0044614212C
:100FC0006846FFF735F914492068884221D1134853
:100FD0000021026842F480220260006800F4802050
:100FE00005900E481038026842F004020260006862
:100FF00000F0040005904FF4406000900220CDE91D
:101000000101032003900720049069460448FFF77C
:1010100059FB06B010BD00000048004040380240B7
:10102000000802402DE9F84F044690F83E009A4629
:1010300016460D46202853D1FDB1F6B194F83C0078
:1010400001284DD0012084F83C000027276422208D
:1010500084F83E002763FFF735FCA6858146E685C8
:10106000A0684FF48058404501D1206940B12E4618
:101070005FF0000584F83C7027E00120BDE8F88FA0
:101080000026F7E74B46002220212046CDF800A09D
:1010900000F052FA08B10320F0E726B1A0684045FD
:1010A0001BD038B108E020684068C0F3080025F87C
:1010B000020B07E0206980B12068406800F07F00E3
:1010C00006F8010BE08D401EE085E08D0028D9D1A7
:1010D000202084F83E000020D0E720684068EFE739
:1010E0000220CBE72DE9F843044690F83D001F4667
:1010F00016460D4620284CD1C5B1BEB194F83C002F
:10110000012846D0012084F83C004FF00008C4F8C4
:101110004080212084F83D00FFF7D4FBA68481465F
:10112000E684A068B0F5805F03D004E00120BDE84C
:10113000F883206928B12E465FF0000584F83C80D2
:101140000EE00026FAE78021204600F0F5F9A0B96C
:10115000AEB116F8010B21684860E08C401EE084B7
:10116000E08C4B464FF0000200970028EBD14FF087
:101170004001204600F0E0F930B10320D7E735F810
:10118000020BC0F30800E6E7202084F83D000020B1
:10119000CDE70220CBE7FEE72DE9F04F87B0142121
:1011A0006846FFF745F86D480024016841F01001DA
:1011B0000160016801F010010591016841F004012E
:1011C0000160016801F004010591016841F08001AE
:1011D0000160016801F080010591016841F00101A1
:1011E0000160016801F001010591016841F002010F
:1011F0000160016801F002010591016841F00801F8
:1012000001600068002200F00800059008215448A1
:10121000FFF753FB012211465248FFF74EFB4FF2F6
:10122000100A002251465048FFF747FB08250126C7
:101230000095CDE90164694649480394FFF742FAF5
:101240000096CDE90164694646480394FFF73AFAEF
:1012500000950225CDE901540527CDE903476946EC
:101260004048FFF72FFA41480096CDE90104DFF826
:1012700000B169465846FFF725FA10200090CDE9E5
:1012800001544FF00608CDE9034869465846FFF778
:1012900019FAE0200090CDE90154CDE903476946F1
:1012A0005846FFF70FFA4FF00409CDE9009469465C
:1012B00030480294FFF706FA68020090CDE9015425
:1012C000CDE9034769462B48FFF7FCF9CDF800A0AC
:1012D000CDE90164694624480394FFF7F3F94FF41C
:1012E00084500090CDE90154CDE9034869461D487A
:1012F000FFF7E8F92802CDE9000469465846029450
:10130000FFF7E0F94FF4E0500090CDE901540A20D6
:10131000CDE9034069465846FFF7D4F92020CDE9CE
:101320000004694610480294FFF7CCF94FF410709E
:1013300000901220CDE90106CDE9034969460D4828
:10134000FFF7C0F90C480095CDE90104694604484F
:10135000FFF7B8F907B0BDE8F08F00003038024061
:101360000010024000080240000C02400000111072
:10137000000002400004024000001210FEE7FEE7F9
:1013800070477047FFF7A4BA30B593B03021684674
:10139000FEF74EFF14210CA8FEF74AFF1D4800255A
:1013A000016841F080510160006800F080501190A8
:1013B0001948016841F4804101600068022400F48A
:1013C0008040119001200090000401908001CDE93F
:1013D000064004200890A820CDE9090407200B90BE
:1013E0006846FFF7EDFB08B172B6FEE70CA90F20C7
:1013F00081E831004FF4A0500F904FF480501090CE
:1014000005210CA8FFF7F2FA002801D072B6FEE71A
:1014100013B030BD403802400070004002480168FF
:1014200041F470010160704788ED00E070B504463A
:1014300000680169E26821F44051114301612169AA
:10144000A068E26908436169114308432168CA68DA
:1014500049F20C639A430243CA6020684169A26959
:1014600021F440711143416131492068884202D022
:101470003049884202D1FFF763FB01E0FFF750FBE0
:10148000E2690023192164253226B2F5004F626813
:1014900028D0A0FB0101930F9200FEF791FE0146B8
:1014A000B0FBF5F06FF01802504301EB800006EB43
:1014B0000010B0FBF5F000F0F002B1FBF5F002EB2C
:1014C0000012B1FBF5F06FF01803584301EB8000F8
:1014D00006EB0010B0FBF5F000F00F00216810449F
:1014E000886070BDA0FB010192185B41FEF768FEA9
:1014F0000146B0FBF5F00201B1FBF5F06FF0180307
:10150000584301EB800006EBC000B0FBF5F000F0A3
:10151000F80002EB4002B1FBF5F0584301EB80000C
:1015200006EBC000B0FBF5F000F00700D6E70000C6
:1015300000100140001401402DE9F0419846174683
:101540000E460446069D1DE0681C1BD02DB1FFF71A
:10155000B9F9A0EB0800A84214D92068C16821F4A9
:10156000D071C1602068416921F0010141612020F2
:1015700084F83D0084F83E00002084F83C000320FD
:10158000BDE8F0812068006836EA000004D0002041
:10159000B842D9D00020F3E70120F9E7FEE70000C8
:1015A0000FB4054B10B503A9044A029800F028F8BF
:1015B00010BC5DF814FB0000412500082400002049
:1015C0000907090E002804DB00F1E02080F8001470
:1015D000704700F00F0000F1E02080F8141D704704
:1015E00002E008C8121F08C1002AFAD170477047EC
:1015F000002001E001C1121F002AFBD1704700004A
:101600002DE9FF4F8DB09B460F460446002606E0AD
:1016100025280BD05A460F999047641C761C2078D9
:101620000028F5D111B03046BDE8F08F0025A8465E
:101630000122984900E0054314F8013F203B02FADB
:1016400003F00842F7D120782E2817D114F8010FA3
:1016500045F004052A280ED06FF02F022078A0F163
:10166000300109290AD808EB880102EB410100EB9F
:101670000108641CF2E757F8048B641C20786C287E
:101680000DD004DC4C2812D06A2811D104E0742853
:101690000DD07A280CD10AE045F4001507E06178F6
:1016A00045F48015814202D1641C05F58015641C47
:1016B0002278692A45D008DC002AB3D0582A69D09C
:1016C000632A10D0642A08D13BE0702A67D0732ABD
:1016D00013D0752A5CD0782A5CD010465A460F99F0
:1016E0009047761CD3E017F8040B8DF8000000201B
:1016F0008DF80100E946012003E057F8049B4FF004
:10170000FF3069074FF0000501D40AE06D1C454524
:101710000DDA8542FADB19F805100029F6D106E04A
:101720006D1C8542FCDB19F805100029F8D12E4408
:1017300004E019F8010B5A460F9990476D1EF8D234
:10174000A5E00A200021CDE90801C5F302500228D6
:101750000DD001CFC117031E71F100030DDA4FF058
:10176000000CD0EB0C006CEB01012D2308E0FF1DF9
:1017700027F00707F7E80201EDE72B0504D52B2337
:101780008DF8283001233BE0EB0739D02023F7E721
:101790000A2000E010200021CDE9080107E0102018
:1017A000002145F00405CDE908014FF00808C5F314
:1017B000025002280FD001CF00214FF0000A2B0762
:1017C0001FD5702A0DD0DDE908C38CF0100C5CEA3F
:1017D000030C0CD015E0FF1D27F00707F7E8020106
:1017E000EBE740228DF828204FF0010A0BE050EA89
:1017F000010306D030238DF828308DF829200223EC
:101800009A46582A04D024A20DF120090B9209E02F
:1018100026A2F9E7DDE90823FEF7D2FC0B9B9B5CCF
:1018200009F8013D50EA0102F4D1ADEB0900203086
:101830000890680701D44FF001080899884502DD37
:10184000A8EB010000E000208046002506E00AA881
:101850005A46405D0F9990476D1C761C5545F6DB46
:1018600004E030205A460F999047761CB8F10001E9
:10187000A8F10108F5DC05E019F8010B5A460F99AB
:101880009047761C0899481E08900029F4DC641CD7
:10189000C5E60000092801003031323334353637CF
:1018A00038396162636465660000000030313233AC
:1018B000343536373839414243444546000000004C
:1018C00038B5044612A0FFF76BFE2178491C60185A
:1018D000091F50F8042C204600F0B4FD28B118A0D0
:1018E000FFF75EFE00F02EFD38BD20A0FFF758FE8A
:1018F000012000F017FD01221146002000F0C2FD7A
:101900008DF800000121684600F092FD38BD00000E
:10191000424C5F4442475F4D53473A20426F6F74D9
:101920006C6F616465722064697361626C652070BC
:10193000726F7465637420666C6173680D0A0000D1
:10194000424C5F4442475F4D53473A20426F6F74A9
:101950006C6F6164657220636865636B73756D207D
:101960006661696C65640D0A00000000424C5F44CA
:1019700042475F4D53473A20426F6F746C6F61640A
:10198000657220636865636B73756D20737563633F
:101990006573730D0A00000038B5044612A0FFF706
:1019A000FFFD2178491C6018091F50F8042C2046BF
:1019B00000F048FD28B118A0FFF7F2FD00F0C2FCCE
:1019C00038BD20A0FFF7ECFD012000F0ABFCE17872
:1019D000A078002200F056FD8DF800000121684635
:1019E00000F026FD38BD0000424C5F4442475F4D89
:1019F00053473A20426F6F746C6F61646572206563
:101A00006E61626C652070726F7465637420666CC1
:101A10006173680D0A000000424C5F4442475F4D0D
:101A200053473A20426F6F746C6F61646572206334
:101A30006865636B73756D206661696C65640D0A1A
:101A400000000000424C5F4442475F4D53473A203C
:101A5000426F6F746C6F6164657220636865636B5D
:101A600073756D20737563636573730D0A000000F1
:101A7000F8B504461CA0FFF793FD2178491C6018B7
:101A8000091F50F8042C204600F0DCFC28B122A0ED
:101A9000FFF786FD00F056FCF8BD27A0FFF780FD9C
:101AA000012000F03FFCE278A1782CA0FFF778FD40
:101AB0000122364E150329463046FEF7FEFEE17838
:101AC000A07800F0FFFC8DF8000000222946304687
:101AD000FEF7F3FE9DF800102DA0FFF761FD012138
:101AE000684600F0A5FCF8BD424C5F4445425547AE
:101AF0005F4D53473A20426F6F746C6F616465723B
:101B00002063616C6C20466C617368206572617340
:101B10006520636D640D0A00424C5F4445425547A1
:101B20005F4D53473A20636865636B73756D20663C
:101B300061696C65640D0A00424C5F44454255473B
:101B40005F4D53473A20636865636B73756D20730F
:101B50007563636573730D0A00000000424C5F44B7
:101B600042475F4D53473A20536563746F723A2082
:101B7000256420616E64204E6F5F6F665F536563FE
:101B8000746F72733A2025640D0A0000000C024045
:101B9000424C5F4442475F4D53473A20666C617345
:101BA00065206572617365207374617475733A2082
:101BB0002523780D0A00000038B5044610A0FFF771
:101BC000EFFC2178491C6018091F50F8042C2046AE
:101BD00000F038FC28B115A0FFF7E2FC00F0B2FBE2
:101BE00038BD1BA0FFF7DCFC00F0BEFCADF8000028
:101BF000022000F097FB0221684600F019FC38BD76
:101C0000424C5F44454255475F4D53473A20426F2F
:101C10006F746C6F6164657220676574204349441A
:101C2000206F66204D43550D0A000000424C5F4472
:101C3000454255475F4D53473A20436865636B7390
:101C4000756D206973206661696C65640D0A00001A
:101C5000424C5F44454255475F4D53473A204368E5
:101C600065636B73756D206973207375636365734A
:101C7000730D0A0010B504460FA0FFF791FC217800
:101C8000491C6018091F50F8042C204600F0DAFBAC
:101C900030B113A0FFF784FCBDE8104000F052BB48
:101CA00018A0FFF77DFC0C2000F03CFBBDE81040C5
:101CB0000C211D4800F0BCBB424C5F4445425547D7
:101CC0005F4D53473A20426F6F746C6F6164657269
:101CD000206765742068656C7020636D640D0A0070
:101CE000424C5F44454255475F4D53473A20436855
:101CF00065636B73756D206973206661696C6564DB
:101D00000D0A0000424C5F44454255475F4D534722
:101D10003A20436865636B73756D20697320737532
:101D200063636573730D0A000800002038B504462C
:101D300011A0FFF735FC2178491C6018091F50F8E5
:101D4000042C204600F07EFB28B117A0FFF728FCEA
:101D500000F0F8FA38BD1CA0FFF722FC23480088E9
:101D6000000A8DF80000012000F0DCFA012168462D
:101D700000F05EFB38BD0000424C5F4445425547D1
:101D80005F4D53473A20426F6F746C6F61646572A8
:101D90002067657420666C61736820726470206CC3
:101DA0006576656C0D0A0000424C5F44454255471C
:101DB0005F4D53473A20436865636B73756D2066CA
:101DC00061696C65640D0A00424C5F4445425547A9
:101DD0005F4D53473A20436865636B73756D20739D
:101DE0007563636573730D0A0000000000C0FF1F78
:101DF00038B5044612A0FFF7D3FB2178491C6018C0
:101E0000091F50F8042C204600F01CFB28B117A035
:101E1000FFF7C6FB00F096FA38BD1DA0FFF7C0FB28
:101E2000012000F07FFA01218DF800100A4621A060
:101E3000FFF7B6FB0121684600F0FAFA38BD000052
:101E4000424C5F44454255475F4D53473A20426FED
:101E50006F746C6F6164657220676574205665727B
:101E600073696F6E20424C0D0A000000424C5F44C3
:101E7000454255475F4D53473A20436865636B734E
:101E8000756D206973206661696C65640D0A0000D8
:101E9000424C5F44454255475F4D53473A204368A3
:101EA00065636B73756D2069732073756363657308
:101EB000730D0A00424C5F44454255475F4D5347FE
:101EC0003A20426F6F746C6F616465722076657240
:101ED00073696F6E3A2025642025780D0A00000092
:101EE00038B504463CA0FFF75BFB01208DF80000ED
:101EF0002178491C6018091F50F8042C204600F076
:101F0000A1FA28B13FA0FFF74BFB00F01BFA38BD48
:101F100045A0FFF745FB012000F004FAD4F8024089
:101F20004AA02146FFF73CFB204600F09FFB2146DC
:101F300038B14EA0FFF734FB0121684600F078FA73
:101F400038BD55A0FFF72CFB00208DF800000121C3
:101F5000684600F06DFAA4F100624FF480415948E0
:101F60008A4201D2010632E0574A22448A4202D212
:101F7000554949422BE0554A22448A4202D25349EC
:101F8000494224E0524A22448A4202D250494942FC
:101F90001DE050492144B1F5803F02D24D494942EC
:101FA00015E04D4962184FF400318A4202D24A4985
:101FB00049420CE0494A22448A4202D247494942F6
:101FC00005E0474A22448A4202D24549494201601B
:101FD000641CA04738BD0000424C5F444542554751
:101FE0005F4D53473A20426F6F746C6F6164657246
:101FF00020676F20746F20616464726573730D0ACB
:1020000000000000424C5F44454255475F4D534736
:102010003A20424C20636865636B73756D2066617E
:10202000696C65640D0A0000424C5F4445425547A7
:102030005F4D53473A20424C20636865636B73756C
:102040006D20737563636573730D0A00424C5F44C2
:10205000454255475F4D53473A20476F20416464DE
:1020600072657373202523780D0A0000424C5F448B
:10207000454255475F4D53473A20476F20416464BE
:102080007265737320252378203A3A3A20496E7698
:10209000616C69640D0A0000424C5F44454255473B
:1020A0005F4D53473A20476F2041646472657373F4
:1020B00020252378203A3A3A2056616C69640D0A4B
:1020C0000000000008ED00E000C0FFF70080FFF70F
:1020D0000040FFF70000FFF70000FEF70000FCF7EC
:1020E0000000FAF72DE9F843044625A0FFF758FA57
:1020F00001268DF80060217894F80680491C60184C
:10210000D4F8025050F8042C2046091F00F09AF928
:1021100030B124A0FFF744FA00F014F9BDE8F883C9
:102120002BA0FFF73DFA012000F0FCF8294633A070
:10213000FFF736FA284600F099FA48B139A0FFF7C0
:102140002FFA8DF800600121684600F071F9E5E78B
:102150003CA0FFF725FA0122414F160331463846CD
:10216000FEF7ABFB4246E11D284600F0CEF98DF8A4
:102170000000002231463846FEF79FFBE3E70000EF
:10218000424C5F4442475F4D53473A20426F6F7461
:102190006C6F61646572206D656D2077726974651E
:1021A0000D0A0000424C5F4442475F4D53473A20BE
:1021B000426F6F746C6F6164657220636865636BF6
:1021C00073756D206661696C65640D0A000000001E
:1021D000424C5F4442475F4D53473A20426F6F7411
:1021E0006C6F6164657220636865636B73756D20E5
:1021F000737563636573730D0A000000424C5F449E
:1022000042475F4D53473A20426F6F746C6F616471
:102210006572207772697465206D656D202523785D
:102220000D0A0000424C5F4442475F4D53473A203D
:102230004164647265737320496E766169640D0A46
:1022400000000000424C5F4442475F4D53473A2034
:10225000416464726573732056616C69640D0A0091
:10226000000C024070B50BA0FFF79AF9164D2C68D0
:1022700016A02146FFF794F984F308886C681CA027
:102280002146FFF78DF926480560A446BDE8704059
:1022900060470000424C5F44454255475F4D5347FD
:1022A0003A20426F6F746C6F61646572206A756D5D
:1022B0007020746F2075736572206170706C696333
:1022C0006174696F6E0D0A0000800008424C5F4423
:1022D000454255475F4D53473A204D535020566174
:1022E0006C756520697320252378200D0A00000095
:1022F000424C5F44454255475F4D53473A20417039
:102300007020726573657468616E646C65722061BB
:1023100064647220697320252378200D0A00000070
:1023200008ED00E008B5A5218DF800108DF801003A
:102330004FF0FF33022269460148FEF7D3FE08BD85
:102340002800002008B57F208DF800004FF0FF33F3
:10235000012269460148FEF7C5FE08BD280000209D
:10236000244C4FF0FF35C8212248FDF761FF214979
:102370002B460122A1F14400FEF754FE1D482278AD
:102380002B46611C4438FEF74DFE607851380C280E
:102390002CD2DFE800F0070B0F13171B1F230606D4
:1023A0000627E0E71348FFF723FDDCE71148FFF7B6
:1023B00061FCD8E70F48FFF7FFFBD4E70D48FFF7B4
:1023C000B5FCD0E70B48FFF78BFDCCE70948FFF7DA
:1023D0004FFBC8E70748FFF785FEC4E70548FFF74E
:1023E000DBFAC0E70348FFF76BFABCE702A0FFF790
:1023F000D7F8B8E76C000020424C5F44454255478F
:102400005F4D53473A20496E7661696420636F6D72
:102410006D616E6420636F646520726563696576C3
:1024200065642066726F6D20686F73740D0A00001A
:102430008AB201464FF0FF330148FEF753BE000059
:1024400028000020F8B50D460D49164607460968D4
:10245000FF208A6842F001028A60002407E0385DAC
:102460000090012269460648FEF72CF8641CAC4235
:10247000F5D3B04201D10020F8BD0120F8BD000025
:102480000000002070B50E4C15460646012902D00A
:102490000124204670BDFEF7ADF8094808380168F0
:1024A00021684DB141F47F0141F0020121600068D3
:1024B0000024FEF795F8ECE721EA0641F4E7000076
:1024C000143C024010B5012486B02346FF281AD0E0
:1024D000082815D2C0F10802D2B2914200D91146A3
:1024E00000220092CDE90201022001930490FEF740
:1024F000D3F805A96846FEF71DF80446FEF766F80E
:1025000006B0204610BD0093EEE72DE9F0411646D7
:102510000F468046FEF7C0F8002409E000233A5D2C
:1025200008EB04011846FEF779F8050002D1641C97
:10253000B442F3DBFEF74AF82846BDE8F08100001C
:1025400008490968C90706D0064980390968CA07D9
:102550004FF0604101D1704700BF0A68002AFBD0EC
:1025600008707047800E00E002480068C0F30B005E
:1025700070470000002004E010B5FEF7B1F9FEF747
:1025800003FFFEF709FE1849164808600846FDF7E4
:10259000ACFF08B172B6FEE7154814490C22016081
:1025A0004FF4E131416000218160C160C0E9041253
:1025B0008161C161FEF7CEFC08B172B6FEE7012170
:1025C0000C48FEF775F9012806D00BA0FEF7E8FFCE
:1025D000FFF748FE002010BD16A0FEF7E1FFFFF751
:1025E000BFFE000000300240000000200048004014
:1025F0002800002000000240424C5F4445425547FD
:102600005F4D53473A20427574746F6E2069732092
:102610006E6F742070726573736564202E2E206552
:102620007865637574696E67205573657220617093
:10263000700D0A00424C5F44454255475F4D534779
:102640003A20427574746F6E2069732070726573DE
:10265000736564202E2E20676F696E6720746F206B
:10266000424C206D6F64650D0A000000A0F100511E
:10267000B1F5E03F0ED909490144B1F5804F09D9C0
:10268000A0F10061B1F5801F04D305490844B0F5FD
:10269000805F01D800207047012070470040FEDFB6
:1026A00000C0FDBF000000000000000001020304A4
:1026B000060708090000000001020304DC260008E8
:1026C0000000002028000000E01500080427000892
:1026D0002800002030050000F01500080000000070
:1026E000000000005152535455565758595A5B5CDC
:1026F0000100000010000000000000000024F400B1
:0427000000000000D5
:040000050800018965
:00000001FF
